{
  "_format": "hh-sol-artifact-1",
  "contractName": "CrowdfundingFactory",
  "sourceName": "contracts/CrowdfundingFactory.sol",
  "abi": [
    {
      "inputs": [
        {
          "internalType": "address",
          "name": "_feeToSetter",
          "type": "address"
        },
        {
          "internalType": "address",
          "name": "_feeTo",
          "type": "address"
        },
        {
          "internalType": "address",
          "name": "_transferSigner",
          "type": "address"
        }
      ],
      "stateMutability": "nonpayable",
      "type": "constructor"
    },
    {
      "inputs": [],
      "name": "TokenAddress",
      "type": "error"
    },
    {
      "inputs": [
        {
          "internalType": "string",
          "name": "_type",
          "type": "string"
        }
      ],
      "name": "TokenAllowanceInsufficient",
      "type": "error"
    },
    {
      "inputs": [
        {
          "internalType": "string",
          "name": "_type",
          "type": "string"
        }
      ],
      "name": "TokenBalanceInsufficient",
      "type": "error"
    },
    {
      "inputs": [
        {
          "internalType": "address",
          "name": "_sender",
          "type": "address"
        }
      ],
      "name": "Unauthorized",
      "type": "error"
    },
    {
      "anonymous": false,
      "inputs": [
        {
          "indexed": false,
          "internalType": "address",
          "name": "founder",
          "type": "address"
        },
        {
          "indexed": false,
          "internalType": "address",
          "name": "crowdfunding",
          "type": "address"
        },
        {
          "components": [
            {
              "internalType": "address",
              "name": "sellTokenAddress",
              "type": "address"
            },
            {
              "internalType": "address",
              "name": "buyTokenAddress",
              "type": "address"
            },
            {
              "internalType": "uint8",
              "name": "sellTokenDecimals",
              "type": "uint8"
            },
            {
              "internalType": "uint8",
              "name": "buyTokenDecimals",
              "type": "uint8"
            },
            {
              "internalType": "bool",
              "name": "buyTokenIsNative",
              "type": "bool"
            },
            {
              "internalType": "uint256",
              "name": "raiseTotal",
              "type": "uint256"
            },
            {
              "internalType": "uint256",
              "name": "buyPrice",
              "type": "uint256"
            },
            {
              "internalType": "uint16",
              "name": "swapPercent",
              "type": "uint16"
            },
            {
              "internalType": "uint16",
              "name": "sellTax",
              "type": "uint16"
            },
            {
              "internalType": "uint256",
              "name": "maxBuyAmount",
              "type": "uint256"
            },
            {
              "internalType": "uint256",
              "name": "minBuyAmount",
              "type": "uint256"
            },
            {
              "internalType": "uint16",
              "name": "maxSellPercent",
              "type": "uint16"
            },
            {
              "internalType": "address",
              "name": "teamWallet",
              "type": "address"
            },
            {
              "internalType": "uint256",
              "name": "startTime",
              "type": "uint256"
            },
            {
              "internalType": "uint256",
              "name": "endTime",
              "type": "uint256"
            },
            {
              "internalType": "address",
              "name": "router",
              "type": "address"
            },
            {
              "internalType": "uint256",
              "name": "dexInitPrice",
              "type": "uint256"
            }
          ],
          "indexed": false,
          "internalType": "struct Parameters",
          "name": "paras",
          "type": "tuple"
        }
      ],
      "name": "Created",
      "type": "event"
    },
    {
      "anonymous": false,
      "inputs": [
        {
          "indexed": true,
          "internalType": "address",
          "name": "previousOwner",
          "type": "address"
        },
        {
          "indexed": true,
          "internalType": "address",
          "name": "newOwner",
          "type": "address"
        }
      ],
      "name": "OwnershipTransferred",
      "type": "event"
    },
    {
      "inputs": [
        {
          "internalType": "address",
          "name": "_router",
          "type": "address"
        }
      ],
      "name": "addToDexRouters",
      "outputs": [],
      "stateMutability": "nonpayable",
      "type": "function"
    },
    {
      "inputs": [],
      "name": "children",
      "outputs": [
        {
          "internalType": "address[]",
          "name": "",
          "type": "address[]"
        }
      ],
      "stateMutability": "view",
      "type": "function"
    },
    {
      "inputs": [
        {
          "components": [
            {
              "internalType": "address",
              "name": "sellTokenAddress",
              "type": "address"
            },
            {
              "internalType": "address",
              "name": "buyTokenAddress",
              "type": "address"
            },
            {
              "internalType": "uint8",
              "name": "sellTokenDecimals",
              "type": "uint8"
            },
            {
              "internalType": "uint8",
              "name": "buyTokenDecimals",
              "type": "uint8"
            },
            {
              "internalType": "bool",
              "name": "buyTokenIsNative",
              "type": "bool"
            },
            {
              "internalType": "uint256",
              "name": "raiseTotal",
              "type": "uint256"
            },
            {
              "internalType": "uint256",
              "name": "buyPrice",
              "type": "uint256"
            },
            {
              "internalType": "uint16",
              "name": "swapPercent",
              "type": "uint16"
            },
            {
              "internalType": "uint16",
              "name": "sellTax",
              "type": "uint16"
            },
            {
              "internalType": "uint256",
              "name": "maxBuyAmount",
              "type": "uint256"
            },
            {
              "internalType": "uint256",
              "name": "minBuyAmount",
              "type": "uint256"
            },
            {
              "internalType": "uint16",
              "name": "maxSellPercent",
              "type": "uint16"
            },
            {
              "internalType": "address",
              "name": "teamWallet",
              "type": "address"
            },
            {
              "internalType": "uint256",
              "name": "startTime",
              "type": "uint256"
            },
            {
              "internalType": "uint256",
              "name": "endTime",
              "type": "uint256"
            },
            {
              "internalType": "address",
              "name": "router",
              "type": "address"
            },
            {
              "internalType": "uint256",
              "name": "dexInitPrice",
              "type": "uint256"
            }
          ],
          "internalType": "struct Parameters",
          "name": "paras",
          "type": "tuple"
        }
      ],
      "name": "createCrowdfundingContract",
      "outputs": [],
      "stateMutability": "nonpayable",
      "type": "function"
    },
    {
      "inputs": [],
      "name": "fee",
      "outputs": [
        {
          "internalType": "uint24",
          "name": "",
          "type": "uint24"
        }
      ],
      "stateMutability": "view",
      "type": "function"
    },
    {
      "inputs": [],
      "name": "feeTo",
      "outputs": [
        {
          "internalType": "address",
          "name": "",
          "type": "address"
        }
      ],
      "stateMutability": "view",
      "type": "function"
    },
    {
      "inputs": [],
      "name": "feeToSetter",
      "outputs": [
        {
          "internalType": "address",
          "name": "",
          "type": "address"
        }
      ],
      "stateMutability": "view",
      "type": "function"
    },
    {
      "inputs": [],
      "name": "getStore",
      "outputs": [
        {
          "internalType": "address",
          "name": "",
          "type": "address"
        }
      ],
      "stateMutability": "view",
      "type": "function"
    },
    {
      "inputs": [
        {
          "internalType": "address",
          "name": "_address",
          "type": "address"
        }
      ],
      "name": "isChild",
      "outputs": [
        {
          "internalType": "bool",
          "name": "",
          "type": "bool"
        }
      ],
      "stateMutability": "view",
      "type": "function"
    },
    {
      "inputs": [
        {
          "internalType": "address",
          "name": "_router",
          "type": "address"
        }
      ],
      "name": "isDexRouters",
      "outputs": [
        {
          "internalType": "bool",
          "name": "",
          "type": "bool"
        }
      ],
      "stateMutability": "view",
      "type": "function"
    },
    {
      "inputs": [],
      "name": "owner",
      "outputs": [
        {
          "internalType": "address",
          "name": "",
          "type": "address"
        }
      ],
      "stateMutability": "view",
      "type": "function"
    },
    {
      "inputs": [
        {
          "internalType": "address",
          "name": "_router",
          "type": "address"
        }
      ],
      "name": "removeFromDexRouters",
      "outputs": [],
      "stateMutability": "nonpayable",
      "type": "function"
    },
    {
      "inputs": [],
      "name": "renounceOwnership",
      "outputs": [],
      "stateMutability": "nonpayable",
      "type": "function"
    },
    {
      "inputs": [
        {
          "internalType": "address",
          "name": "_feeTo",
          "type": "address"
        }
      ],
      "name": "setFeeTo",
      "outputs": [],
      "stateMutability": "nonpayable",
      "type": "function"
    },
    {
      "inputs": [
        {
          "internalType": "address",
          "name": "_feeToSetter",
          "type": "address"
        }
      ],
      "name": "setFeeToSetter",
      "outputs": [],
      "stateMutability": "nonpayable",
      "type": "function"
    },
    {
      "inputs": [
        {
          "internalType": "address",
          "name": "_transferSigner",
          "type": "address"
        }
      ],
      "name": "setTransferSigner",
      "outputs": [],
      "stateMutability": "nonpayable",
      "type": "function"
    },
    {
      "inputs": [
        {
          "internalType": "address",
          "name": "newOwner",
          "type": "address"
        }
      ],
      "name": "transferOwnership",
      "outputs": [],
      "stateMutability": "nonpayable",
      "type": "function"
    },
    {
      "inputs": [
        {
          "internalType": "address",
          "name": "newFactory",
          "type": "address"
        }
      ],
      "name": "transferPrimary",
      "outputs": [],
      "stateMutability": "nonpayable",
      "type": "function"
    },
    {
      "inputs": [],
      "name": "transferSigner",
      "outputs": [
        {
          "internalType": "address",
          "name": "",
          "type": "address"
        }
      ],
      "stateMutability": "view",
      "type": "function"
    },
    {
      "inputs": [
        {
          "internalType": "address",
          "name": "newStore",
          "type": "address"
        }
      ],
      "name": "transferStore",
      "outputs": [],
      "stateMutability": "nonpayable",
      "type": "function"
    }
  ],
  "bytecode": "0x60a06040523480156200001157600080fd5b5060405162006b6638038062006b66833981016040819052620000349162000197565b6200003f336200010e565b6040516200004d906200015e565b604051809103906000f0801580156200006a573d6000803e3d6000fd5b50600180546001600160a01b0319166001600160a01b039290921691909117905560405162000099906200016c565b604051809103906000f080158015620000b6573d6000803e3d6000fd5b50600280546001600160a01b03199081166001600160a01b0393841617909155600480548216958316959095179094556005805485169282169290921790915560038054909316911617905561012c608052620001e1565b600080546001600160a01b038381166001600160a01b0319831681178455604051919092169283917f8be0079c531659141344cd1fd0a4f28419497f9722a3daafe3b4186f6b6457e09190a35050565b6104bf806200615883390190565b61054f806200661783390190565b80516001600160a01b03811681146200019257600080fd5b919050565b600080600060608486031215620001ad57600080fd5b620001b8846200017a565b9250620001c8602085016200017a565b9150620001d8604085016200017a565b90509250925092565b608051615f5b620001fd60003960006102680152615f5b6000f3fe60806040523480156200001157600080fd5b5060043610620001395760003560e01c8063a5f5775111620000bb578063e7836e1b116200007a578063e7836e1b146200029f578063f2fde38b14620002c7578063f46901ed14620002de578063f523e77514620002f5578063fc91a897146200030c57600080fd5b8063a5f577511462000214578063b1d00df0146200022b578063c2722ecc146200023f578063c2bc80fd1462000249578063ddca3f43146200026257600080fd5b8063269e4e171162000108578063269e4e1714620001b35780633d4281b814620001ca578063715018a614620001e15780638da5cb5b14620001eb578063a2e74af614620001fd57600080fd5b8063017e7e58146200013e5780630728bb94146200016f578063094b741514620001885780632348238c146200019c575b600080fd5b60035462000152906001600160a01b031681565b6040516001600160a01b0390911681526020015b60405180910390f35b620001866200018036600462000f55565b62000323565b005b60045462000152906001600160a01b031681565b62000186620001ad36600462000f97565b62000a16565b62000186620001c436600462000f97565b62000aa8565b62000186620001db36600462000f97565b62000b08565b6200018662000b68565b6000546001600160a01b031662000152565b620001866200020e36600462000f97565b62000b97565b620001866200022536600462000f97565b62000c01565b60055462000152906001600160a01b031681565b6200015262000c50565b6200025362000c8e565b60405162000166919062000fbe565b6200028a7f000000000000000000000000000000000000000000000000000000000000000081565b60405162ffffff909116815260200162000166565b620002b6620002b036600462000f97565b62000d08565b604051901515815260200162000166565b62000186620002d836600462000f97565b62000d81565b62000186620002ef36600462000f97565b62000e23565b620001866200030636600462000f97565b62000e74565b620002b66200031d36600462000f97565b62000ec3565b600062000334602083018362000f97565b6001600160a01b031614801562000365575060006200035a604083016020840162000f97565b6001600160a01b0316145b156200038457604051636165d18360e11b815260040160405180910390fd5b60008160c0013511620003cf5760405162461bcd60e51b815260206004820152600e60248201526d4552523a2042555920505249434560901b60448201526064015b60405180910390fd5b6000620003e561020083016101e0840162000f97565b6001600160a01b0316146200044457600081610200013511620004445760405162461bcd60e51b815260206004820152601660248201527508aa4a47440929c92a840a0a492868a409e8c40888ab60531b6044820152606401620003c6565b6200045c620002b061020083016101e0840162000f97565b8062000484575060006200047961020083016101e0840162000f97565b6001600160a01b0316145b620004c85760405162461bcd60e51b815260206004820152601360248201527208aa4a4749c9ea840a6aaa0a09ea4a840888ab606b1b6044820152606401620003c6565b6000620004d9602083018362000f97565b905060003033604051620004ed9062000f47565b6001600160a01b03928316815291166020820152608060408201819052600c908201526b43726f776466756e64696e6760a01b60a082015260c060608201819052600390820152620312e360ec1b60e082015261010001604051809103906000f08015801562000561573d6000803e3d6000fd5b5060405163689d133960e11b81529091506001600160a01b0382169063d13a2672906200059390869060040162001197565b600060405180830381600087803b158015620005ae57600080fd5b505af1158015620005c3573d6000803e3d6000fd5b505050506000816001600160a01b031663d0e30db06040518163ffffffff1660e01b8152600401602060405180830381865afa15801562000608573d6000803e3d6000fd5b505050506040513d601f19601f820116820180604052508101906200062e9190620011a8565b905060008111620006825760405162461bcd60e51b815260206004820152601a60248201527f53656c6c20746f6b656e206465706f736974206973207a65726f0000000000006044820152606401620003c6565b6040516370a0823160e01b815233600482015281906001600160a01b038516906370a0823190602401602060405180830381865afa158015620006c9573d6000803e3d6000fd5b505050506040513d601f19601f82011682018060405250810190620006ef9190620011a8565b10156200072957604051638c2f4c6b60e01b8152600401620003c69060208082526004908201526314d95b1b60e21b604082015260600190565b604051636eb1769f60e11b815233600482015230602482015281906001600160a01b0385169063dd62ed3e90604401602060405180830381865afa15801562000776573d6000803e3d6000fd5b505050506040513d601f19601f820116820180604052508101906200079c9190620011a8565b1015620007d657604051630b29193560e31b8152600401620003c69060208082526004908201526314d95b1b60e21b604082015260600190565b826001600160a01b03166323b872dd33846001600160a01b031663f4e759ef6040518163ffffffff1660e01b8152600401602060405180830381865afa15801562000825573d6000803e3d6000fd5b505050506040513d601f19601f820116820180604052508101906200084b9190620011cf565b6040516001600160e01b031960e085901b1681526001600160a01b03928316600482015291166024820152604481018490526064016020604051808303816000875af1158015620008a0573d6000803e3d6000fd5b505050506040513d601f19601f82011682018060405250810190620008c69190620011ef565b620009145760405162461bcd60e51b815260206004820152601f60248201527f53656c6c20746f6b656e207472616e7366657246726f6d206661696c757265006044820152606401620003c6565b60405163f2fde38b60e01b81523360048201526001600160a01b0383169063f2fde38b90602401600060405180830381600087803b1580156200095657600080fd5b505af11580156200096b573d6000803e3d6000fd5b50506001546040516389b09de760e01b81526001600160a01b03808716600483015286945090911691506389b09de790602401600060405180830381600087803b158015620009b957600080fd5b505af1158015620009ce573d6000803e3d6000fd5b505050507fc1191fb07fb1a904651e55bac1a512862d3f31c90f8073cb542dd291994e704833828760405162000a07939291906200120f565b60405180910390a15050505050565b6000546001600160a01b0316331462000a435760405162461bcd60e51b8152600401620003c6906200123f565b6001546040516308d208e360e21b81526001600160a01b03838116600483015290911690632348238c906024015b600060405180830381600087803b15801562000a8c57600080fd5b505af115801562000aa1573d6000803e3d6000fd5b5050505050565b6000546001600160a01b0316331462000ad55760405162461bcd60e51b8152600401620003c6906200123f565b600254604051638ab1d68160e01b81526001600160a01b03838116600483015290911690638ab1d6819060240162000a71565b6000546001600160a01b0316331462000b355760405162461bcd60e51b8152600401620003c6906200123f565b60025460405163e43252d760e01b81526001600160a01b0383811660048301529091169063e43252d79060240162000a71565b6000546001600160a01b0316331462000b955760405162461bcd60e51b8152600401620003c6906200123f565b565b6004546001600160a01b03163314158062000bbd57506000546001600160a01b03163314155b1562000bdf5760405163472511eb60e11b8152336004820152602401620003c6565b600480546001600160a01b0319166001600160a01b0392909216919091179055565b6000546001600160a01b0316331462000c2e5760405162461bcd60e51b8152600401620003c6906200123f565b600580546001600160a01b0319166001600160a01b0392909216919091179055565b600080546001600160a01b0316331462000c7e5760405162461bcd60e51b8152600401620003c6906200123f565b506001546001600160a01b031690565b6001546040805163c2bc80fd60e01b815290516060926001600160a01b03169163c2bc80fd9160048083019260009291908290030181865afa15801562000cd9573d6000803e3d6000fd5b505050506040513d6000823e601f3d908101601f1916820160405262000d0391908101906200128a565b905090565b600254604051633af32abf60e01b81526001600160a01b0383811660048301526000921690633af32abf906024015b602060405180830381865afa15801562000d55573d6000803e3d6000fd5b505050506040513d601f19601f8201168201806040525081019062000d7b9190620011ef565b92915050565b6000546001600160a01b0316331462000dae5760405162461bcd60e51b8152600401620003c6906200123f565b6001600160a01b03811662000e155760405162461bcd60e51b815260206004820152602660248201527f4f776e61626c653a206e6577206f776e657220697320746865207a65726f206160448201526564647265737360d01b6064820152608401620003c6565b62000e208162000ef7565b50565b6004546001600160a01b0316331462000e525760405163472511eb60e11b8152336004820152602401620003c6565b600380546001600160a01b0319166001600160a01b0392909216919091179055565b6000546001600160a01b0316331462000ea15760405162461bcd60e51b8152600401620003c6906200123f565b600180546001600160a01b0319166001600160a01b0392909216919091179055565b60015460405163fc91a89760e01b81526001600160a01b038381166004830152600092169063fc91a8979060240162000d37565b600080546001600160a01b038381166001600160a01b0319831681178455604051919092169283917f8be0079c531659141344cd1fd0a4f28419497f9722a3daafe3b4186f6b6457e09190a35050565b614bc8806200135e83390190565b6000610220828403121562000f6957600080fd5b50919050565b6001600160a01b038116811462000e2057600080fd5b803562000f928162000f6f565b919050565b60006020828403121562000faa57600080fd5b813562000fb78162000f6f565b9392505050565b6020808252825182820181905260009190848201906040850190845b81811015620010015783516001600160a01b03168352928401929184019160010162000fda565b50909695505050505050565b803560ff8116811462000f9257600080fd5b801515811462000e2057600080fd5b803562000f92816200101f565b803561ffff8116811462000f9257600080fd5b6200106b826200105e8362000f85565b6001600160a01b03169052565b620010796020820162000f85565b6001600160a01b0316602083015262001095604082016200100d565b60ff166040830152620010ab606082016200100d565b60ff166060830152620010c1608082016200102e565b80151560808401525060a081013560a083015260c081013560c0830152620010ec60e082016200103b565b61ffff1660e0830152610100620011058282016200103b565b61ffff169083015261012081810135908301526101408082013590830152610160620011338183016200103b565b61ffff16908301526101806200114b82820162000f85565b6001600160a01b0316908301526101a081810135908301526101c080820135908301526101e06200117e81830162000f85565b6001600160a01b03169083015261020090810135910152565b610220810162000d7b82846200104e565b600060208284031215620011bb57600080fd5b5051919050565b805162000f928162000f6f565b600060208284031215620011e257600080fd5b815162000fb78162000f6f565b6000602082840312156200120257600080fd5b815162000fb7816200101f565b6001600160a01b0384811682528316602082015261026081016200123760408301846200104e565b949350505050565b6020808252818101527f4f776e61626c653a2063616c6c6572206973206e6f7420746865206f776e6572604082015260600190565b634e487b7160e01b600052604160045260246000fd5b600060208083850312156200129e57600080fd5b825167ffffffffffffffff80821115620012b757600080fd5b818501915085601f830112620012cc57600080fd5b815181811115620012e157620012e162001274565b8060051b604051601f19603f8301168101818110858211171562001309576200130962001274565b6040529182528482019250838101850191888311156200132857600080fd5b938501935b8285101562001351576200134185620011c2565b845293850193928501926200132d565b9897505050505050505056fe6101406040523480156200001257600080fd5b5060405162004bc838038062004bc8833981016040819052620000359162000253565b8181620000423362000121565b815160209283012081519183019190912060e08290526101008190524660a0818152604080517f8b73c3c69bb8fe3d512ecc4cf759cc79239f7b179b0ffacaa9a75d522b39400f818801819052818301969096526060810194909452608080850193909352308483018190528151808603909301835260c094850190915281519190950120905282905261012052600580546001600160a01b03199081166001600160a01b03978816908117909255600680548216969097169590951790955560188054851690911790555050600480549091169091179055620002e3565b600080546001600160a01b038381166001600160a01b0319831681178455604051919092169283917f8be0079c531659141344cd1fd0a4f28419497f9722a3daafe3b4186f6b6457e09190a35050565b80516001600160a01b03811681146200018957600080fd5b919050565b634e487b7160e01b600052604160045260246000fd5b600082601f830112620001b657600080fd5b81516001600160401b0380821115620001d357620001d36200018e565b604051601f8301601f19908116603f01168101908282118183101715620001fe57620001fe6200018e565b816040528381526020925086838588010111156200021b57600080fd5b600091505b838210156200023f578582018301518183018401529082019062000220565b600093810190920192909252949350505050565b600080600080608085870312156200026a57600080fd5b620002758562000171565b9350620002856020860162000171565b60408601519093506001600160401b0380821115620002a357600080fd5b620002b188838901620001a4565b93506060870151915080821115620002c857600080fd5b50620002d787828801620001a4565b91505092959194509250565b60805160a05160c05160e0516101005161012051614895620003336000396000612be101526000612c2301526000612c0201526000612b6601526000612b9001526000612bba01526148956000f3fe6080604052600436106101185760003560e01c8063c216ff88116100a0578063d79875eb11610064578063d79875eb146103cb578063ea8a1af0146103de578063f2fde38b146103f3578063f4e759ef14610413578063f523e7751461042857600080fd5b8063c216ff8814610341578063c2722ecc14610362578063d0e30db014610377578063d13a267214610395578063d6febde8146103a857600080fd5b806389035730116100e757806389035730146101ef5780638da5cb5b1461029d578063a7f43779146102cf578063b305862b146102e4578063c19d93fb1461030457600080fd5b80632348238c1461017457806366d602ae14610196578063715018a6146101c557806388e765ff146101da57600080fd5b3661016f576040805133815260208101829052600781830152667265636569766560c81b606082015290517fd00ca3f088120b3d909c3a9e01be91e94a2b001aed9c25fe751c3c7a72dc49bf9181900360800190a1005b600080fd5b34801561018057600080fd5b5061019461018f36600461300a565b610448565b005b3480156101a257600080fd5b506101ab6104dd565b604080519283526020830191909152015b60405180910390f35b3480156101d157600080fd5b506101946104f1565b3480156101e657600080fd5b506101ab61051d565b3480156101fb57600080fd5b50610240600c54600d54600f546010546011546012546013546017546001600160a01b039788169897871697600160a81b90970460ff169661ffff9586169590921691565b604080516001600160a01b039a8b1681529990981660208a015260ff90961696880196909652606087019390935261ffff918216608087015260a086015260c085019190915290911660e0830152610100820152610120016101bc565b3480156102a957600080fd5b506000546001600160a01b03165b6040516001600160a01b0390911681526020016101bc565b3480156102db57600080fd5b50610194610529565b3480156102f057600080fd5b506101946102ff366004613027565b6106b7565b34801561031057600080fd5b50610319610733565b604080519586526020860194909452928401919091526060830152608082015260a0016101bc565b61035461034f366004613082565b610761565b6040516101bc92919061315e565b34801561036e57600080fd5b506102b7610bf0565b34801561038357600080fd5b506008546040519081526020016101bc565b6101946103a3366004613206565b610c2b565b6103bb6103b636600461331d565b61108a565b60405190151581526020016101bc565b6103bb6103d936600461331d565b611788565b3480156103ea57600080fd5b50610194611d11565b3480156103ff57600080fd5b5061019461040e36600461300a565b611dd3565b34801561041f57600080fd5b506102b7611e6e565b34801561043457600080fd5b5061019461044336600461300a565b611ea9565b6000546001600160a01b0316331461047b5760405162461bcd60e51b81526004016104729061333f565b60405180910390fd5b6001546040516308d208e360e21b81526001600160a01b03838116600483015290911690632348238c90602401600060405180830381600087803b1580156104c257600080fd5b505af11580156104d6573d6000803e3d6000fd5b5050505050565b6000806104e933611ef5565b915091509091565b6000546001600160a01b0316331461051b5760405162461bcd60e51b81526004016104729061333f565b565b6000806104e933612058565b6000546001600160a01b031633146105535760405162461bcd60e51b81526004016104729061333f565b61055b61212c565b61056361216a565b600061056d6121f2565b11156105ed576016546001600160a01b0316156105c1576040516306b53bd360e11b81526020600482015260116024820152706f6e6c79206175746f206c697374696e6760781b6044820152606401610472565b60006105cb61228d565b9050806105eb57604051636244afcf60e11b815260040160405180910390fd5b505b601354610608906201000090046001600160a01b031661250d565b6106255760405163a1b57be360e01b815260040160405180910390fd5b601354610640906201000090046001600160a01b0316612696565b61065d5760405163012e4d1960e61b815260040160405180910390fd5b6019805460ff60a01b1916600360a01b17908190556040517fc5b1926826a1a3d3516971a2579cab66ddfa770959e8c2f1d832386b262e2d86916106ad913391600160a01b900460ff16906133ac565b60405180910390a1565b6000546001600160a01b031633146106e15760405162461bcd60e51b81526004016104729061333f565b6106e961212c565b6106f161275b565b601581905560408051338152602081018390527f808c9d67d9bb9dd70b931d1346a5e2b1f750fc3eeb2d9770805038ab16c3028d91015b60405180910390a150565b6000806000806000806107446121f2565b600e54600954600a54601754929a91995097509195509350915050565b600080546060906001600160a01b0316331461078f5760405162461bcd60e51b81526004016104729061333f565b601954600160a81b900460ff16156107b95760405162461bcd60e51b8152600401610472906133c9565b6019805460ff60a81b1916600160a81b1790556107d461212c565b6107dc61216a565b6016546001600160a01b031661082e576040516306b53bd360e11b81526020600482015260166024820152756e6f7420616c6c6f77206175746f206c697374696e6760501b6044820152606401610472565b6016546001600160a01b03898116911614610882576040516306b53bd360e11b815260206004820152601360248201527224b731b7b739b4b9ba32b73a103937baba32b960691b6044820152606401610472565b60055460408051630b1d00df60e41b815290516001600160a01b039092169161090991839163b1d00df0916004808201926020929091908290030181865afa1580156108d2573d6000803e3d6000fd5b505050506040513d601f19601f820116820180604052508101906108f691906133f1565b6109028b8b8b8b61277d565b87876127df565b156109275760405163247d106d60e11b815260040160405180910390fd5b600061093161228d565b90508061095157604051636244afcf60e11b815260040160405180910390fd5b600061095b6121f2565b600d549091506000906109919061097d90600160a81b900460ff16600a613508565b60175461098b90859061283e565b9061284a565b6002546019546040516370a0823160e01b81526001600160a01b03918216600482015292935016906370a0823190602401602060405180830381865afa1580156109df573d6000803e3d6000fd5b505050506040513d601f19601f82011682018060405250810190610a039190613517565b811115610a4057604051638c2f4c6b60e01b815260206004820152600a60248201526939b2b636103a37b5b2b760b11b6044820152606401610472565b3660008b8b91509150600160009054906101000a90046001600160a01b03166001600160a01b031663e5a4dbf88f600260009054906101000a90046001600160a01b0316600360009054906101000a90046001600160a01b031687898888600c60010160169054906101000a900460ff166040518963ffffffff1660e01b8152600401610ad4989796959493929190613559565b6000604051808303816000875af1158015610af3573d6000803e3d6000fd5b505050506040513d6000823e601f3d908101601f19168201604052610b1b91908101906135b3565b909850965087610b3e57604051637a4c140d60e11b815260040160405180910390fd5b601354610b59906201000090046001600160a01b0316612696565b610b765760405163012e4d1960e61b815260040160405180910390fd5b6019805460ff60a01b1916600360a01b17908190556040517fab3f2147088482db1a84b21889cc70b0e5ac5a0a34b9217f12cfc1861a9c3cef91610bc8913391600160a01b900460ff16908b90613676565b60405180910390a15050505050506019805460ff60a81b191690559097909650945050505050565b600080546001600160a01b03163314610c1b5760405162461bcd60e51b81526004016104729061333f565b506001546001600160a01b031690565b6000546001600160a01b03163314610c555760405162461bcd60e51b81526004016104729061333f565b6001546001600160a01b031615610ca25760405162461bcd60e51b815260206004820152601160248201527053746f7265206973206e6f74207a65726f60781b6044820152606401610472565b604051610cae90612fd8565b604051809103906000f080158015610cca573d6000803e3d6000fd5b50600180546001600160a01b03199081166001600160a01b039384169081179092556019805482169092179091558251600c805483169184169190911790556020830151600d80546040860151606087015160808801519487166001600160a81b031990931692909217600160a01b60ff928316021761ffff60a81b1916600160a81b919092160260ff60b01b191617600160b01b9215159290920291909117905560a0830151600e5560c0830151600f5560e08301516010805461010086015161ffff93841663ffffffff19909216919091176201000091841682021790915561012085015160115561014085015160125561016085015160138054610180880151929094166001600160b01b0319909416939093179085169091021790556101a08301516014556101c08301516015556101e0830151601680549092169216919091179055610200810151601755610e22612856565b6019805460ff60a01b1916600160a01b836004811115610e4457610e44613374565b0217905550600c54600280546001600160a01b0319166001600160a01b0390921691821790556040805163313ce56760e01b8152905163313ce567916004808201926020929091908290030181865afa158015610ea5573d6000803e3d6000fd5b505050506040513d601f19601f82011682018060405250810190610ec991906136a5565b600d805460ff92909216600160a01b0260ff60a01b1983168117909155600c546001600160a01b0391821692821692909217911603610f1b57600d805461ffff60a81b1916608960a91b179055610fc7565b600d805460ff60b01b198116909155600380546001600160a01b0319166001600160a01b0390921691821790556040805163313ce56760e01b8152905163313ce567916004808201926020929091908290030181865afa158015610f83573d6000803e3d6000fd5b505050506040513d601f19601f82011682018060405250810190610fa791906136a5565b600d805460ff92909216600160a81b0260ff60a81b199092169190911790555b600e54610fd590600061287e565b6007819055600b819055600d5461102c92506110269061100090600160a81b900460ff16600a613508565b601754601054600e5461098b926127109284926110209161ffff1661283e565b9061283e565b90612902565b6008557fa81af9f26c34c6997396d1d61be10b4cd9843035f372979270c7049cf0325b8a6110626000546001600160a01b031690565b60055460065460075460405161072894936001600160a01b0390811693169190600c906136c2565b600061109461212c565b61109c61290e565b601954600160a81b900460ff16156110c65760405162461bcd60e51b8152600401610472906133c9565b6019805460ff60a81b1916600160a81b1790556110e38383612931565b60125483101561110657604051636226a2a560e01b815260040160405180910390fd5b6111103384612985565b61112d576040516311b5c73d60e21b815260040160405180910390fd5b6002546019546040516370a0823160e01b81526001600160a01b039182166004820152849291909116906370a0823190602401602060405180830381865afa15801561117d573d6000803e3d6000fd5b505050506040513d601f19601f820116820180604052508101906111a19190613517565b10156111c057604051638c2f4c6b60e01b8152600401610472906137de565b60006111cb8461299d565b600d54909150600160b01b900460ff1615611323578334146112285760405162461bcd60e51b81526020600482015260166024820152751b5cd9cb9d985b1d59481a5cc81b9bdd081d985b1a5960521b6044820152606401610472565b6019546040516000916001600160a01b03169083908381818185875af1925050503d8060008114611275576040519150601f19603f3d011682016040523d82523d6000602084013e61127a565b606091505b505090508061129c57604051633e75f72760e11b8152600401610472906137fc565b6013546201000090046001600160a01b03166112b834846129bf565b604051600081818185875af1925050503d80600081146112f4576040519150601f19603f3d011682016040523d82523d6000602084013e6112f9565b606091505b5050809150508061131d57604051633e75f72760e11b8152600401610472906137fc565b5061158a565b600354601854604051636eb1769f60e11b81523360048201526001600160a01b0391821660248201528692919091169063dd62ed3e90604401602060405180830381865afa158015611379573d6000803e3d6000fd5b505050506040513d601f19601f8201168201806040525081019061139d9190613517565b10156113bc57604051630b29193560e31b8152600401610472906137fc565b6003546040516370a0823160e01b815233600482015285916001600160a01b0316906370a0823190602401602060405180830381865afa158015611404573d6000803e3d6000fd5b505050506040513d601f19601f820116820180604052508101906114289190613517565b101561144757604051638c2f4c6b60e01b8152600401610472906137fc565b6003546019546040516323b872dd60e01b81526001600160a01b03928316926323b872dd92611480923392909116908690600401613819565b6020604051808303816000875af115801561149f573d6000803e3d6000fd5b505050506040513d601f19601f820116820180604052508101906114c3919061383d565b6114e057604051633e75f72760e11b8152600401610472906137fc565b6003546013546001600160a01b03918216916323b872dd913391620100009091041661150c88866129bf565b6040518463ffffffff1660e01b815260040161152a93929190613819565b6020604051808303816000875af1158015611549573d6000803e3d6000fd5b505050506040513d601f19601f8201168201806040525081019061156d919061383d565b61158a57604051633e75f72760e11b8152600401610472906137fc565b600154600254604051637aa9bf6f60e11b81526001600160a01b039283169263f5537ede926115c29291169033908890600401613819565b6020604051808303816000875af11580156115e1573d6000803e3d6000fd5b505050506040513d601f19601f82011682018060405250810190611605919061383d565b61162257604051633e75f72760e11b8152600401610472906137de565b60095461162f9085612902565b600955600b5461163f90846129bf565b600b55600a5461164f9082612902565b600a55600154604051636aa05ee360e01b815233600482015260248101869052604481018590526001600160a01b0390911690636aa05ee390606401600060405180830381600087803b1580156116a557600080fd5b505af11580156116b9573d6000803e3d6000fd5b50506001546040516379da956560e01b815233600482015260248101889052604481018790526001600160a01b0390911692506379da95659150606401600060405180830381600087803b15801561171057600080fd5b505af1158015611724573d6000803e3d6000fd5b505050507f2c5cc05b9a7b53e2478a9af1c94ec079b5be7c669be3df98ad86d28237f689e7338585600954600b54600a5442604051611769979695949392919061385a565b60405180910390a150506019805460ff60a81b19169055506001919050565b600061179261212c565b61179a61290e565b601954600160a81b900460ff16156117c45760405162461bcd60e51b8152600401610472906133c9565b6019805460ff60a81b1916600160a81b1790556117e18383612931565b6117eb33836129cb565b611808576040516311b5c73d60e21b815260040160405180910390fd5b6000611813846129e3565b90508061181e6121f2565b101561183d57604051638c2f4c6b60e01b8152600401610472906137fc565b600254601854604051636eb1769f60e11b81523360048201526001600160a01b0391821660248201528592919091169063dd62ed3e90604401602060405180830381865afa158015611893573d6000803e3d6000fd5b505050506040513d601f19601f820116820180604052508101906118b79190613517565b10156118f357604051630b29193560e31b815260206004820152600a60248201526929b2b636103a37b5b2b760b11b6044820152606401610472565b6002546040516370a0823160e01b815233600482015284916001600160a01b0316906370a0823190602401602060405180830381865afa15801561193b573d6000803e3d6000fd5b505050506040513d601f19601f8201168201806040525081019061195f9190613517565b101561199b57604051638c2f4c6b60e01b815260206004820152600a60248201526929b2b636103a37b5b2b760b11b6044820152606401610472565b6002546019546040516323b872dd60e01b81526001600160a01b03928316926323b872dd926119d4923392909116908890600401613819565b6020604051808303816000875af11580156119f3573d6000803e3d6000fd5b505050506040513d601f19601f82011682018060405250810190611a17919061383d565b611a3457604051633e75f72760e11b8152600401610472906137de565b600d54600160b01b900460ff1615611b0a576019546001600160a01b031631811115611a7357604051630b29193560e31b815260040161047290613895565b60015460405163a9059cbb60e01b8152336004820152602481018390526001600160a01b039091169063a9059cbb906044016020604051808303816000875af1158015611ac4573d6000803e3d6000fd5b505050506040513d601f19601f82011682018060405250810190611ae8919061383d565b611b0557604051633e75f72760e11b815260040161047290613895565b611c35565b6003546019546040516370a0823160e01b81526001600160a01b039182166004820152839291909116906370a0823190602401602060405180830381865afa158015611b5a573d6000803e3d6000fd5b505050506040513d601f19601f82011682018060405250810190611b7e9190613517565b1015611b9d57604051630b29193560e31b815260040161047290613895565b600154600354604051637aa9bf6f60e11b81526001600160a01b039283169263f5537ede92611bd59291169033908690600401613819565b6020604051808303816000875af1158015611bf4573d6000803e3d6000fd5b505050506040513d601f19601f82011682018060405250810190611c18919061383d565b611c3557604051633e75f72760e11b815260040161047290613895565b600954611c4290856129bf565b600955600b54611c529084612902565b600b55600a54611c6290826129bf565b600a5560015460405163e32fca3f60e01b815233600482015260248101869052604481018590526001600160a01b039091169063e32fca3f90606401600060405180830381600087803b158015611cb857600080fd5b505af1158015611ccc573d6000803e3d6000fd5b505050507fe771a8c700d0802cd276270eb0596a1aead6f28237a9e5f26e00ccf08dad7033338585600954600b54600a5442604051611769979695949392919061385a565b6000546001600160a01b03163314611d3b5760405162461bcd60e51b81526004016104729061333f565b611d4361212c565b611d4b612a16565b601354611d66906201000090046001600160a01b0316612696565b611d835760405163012e4d1960e61b815260040160405180910390fd5b6019805460ff60a01b1916600160a21b17908190556040517fcd8e02743d921fb9bca767936271b8b93911716c78c1d46c2c6ee6189309d30c916106ad913391600160a01b900460ff16906133ac565b6000546001600160a01b03163314611dfd5760405162461bcd60e51b81526004016104729061333f565b6001600160a01b038116611e625760405162461bcd60e51b815260206004820152602660248201527f4f776e61626c653a206e6577206f776e657220697320746865207a65726f206160448201526564647265737360d01b6064820152608401610472565b611e6b81612a38565b50565b600080546001600160a01b03163314611e995760405162461bcd60e51b81526004016104729061333f565b506019546001600160a01b031690565b6000546001600160a01b03163314611ed35760405162461bcd60e51b81526004016104729061333f565b600180546001600160a01b0319166001600160a01b0392909216919091179055565b600154604051631d76db5b60e31b81526001600160a01b038381166004830152600092839283929091169063ebb6dad8906024016040805180830381865afa158015611f45573d6000803e3d6000fd5b505050506040513d601f19601f82011682018060405250810190611f6991906138b8565b60015460405163f5a7976760e01b81526001600160a01b0388811660048301529294506000935091169063f5a79767906024016040805180830381865afa158015611fb8573d6000803e3d6000fd5b505050506040513d601f19601f82011682018060405250810190611fdc91906138b8565b601354909250600091506120239061201d90859061201790612710906120069061ffff16846138dc565b61201091906138f3565b8690612902565b906129bf565b83612a88565b90506000612034600a54600061287e565b91505061204b60006120468484612a88565b61287e565b9550955050505050915091565b60015460405163f5a7976760e01b81526001600160a01b038381166004830152600092839283929091169063f5a79767906024016040805180830381865afa1580156120a8573d6000803e3d6000fd5b505050506040513d601f19601f820116820180604052508101906120cc91906138b8565b506011549091506000906120f8906120e490846129bf565b600954600e546120f3916129bf565b612a88565b905060006121096000600b5461287e565b5090506121206121198383612a88565b600061287e565b94509450505050915091565b6004601954600160a01b900460ff16600481111561214c5761214c613374565b0361051b57604051631afb0ae560e01b815260040160405180910390fd5b60155442118061217e5750600e5460095410155b6121b45760405162461bcd60e51b81526020600482015260076024820152664552523a204e4560c81b6044820152606401610472565b6003601954600160a01b900460ff1660048111156121d4576121d4613374565b0361051b57604051631a48f37b60e21b815260040160405180910390fd5b600d54600090600160b01b900460ff161561221857506019546001600160a01b03163190565b6003546019546040516370a0823160e01b81526001600160a01b0391821660048201529116906370a0823190602401602060405180830381865afa158015612264573d6000803e3d6000fd5b505050506040513d601f19601f820116820180604052508101906122889190613517565b905090565b60008061231d61271061098b600460009054906101000a90046001600160a01b03166001600160a01b031663ddca3f436040518163ffffffff1660e01b8152600401602060405180830381865afa1580156122ec573d6000803e3d6000fd5b505050506040513d601f19601f820116820180604052508101906123109190613915565b62ffffff166110206121f2565b600d54909150600090600160b01b900460ff1615612425576001546004805460408051622fcfcb60e31b815290516001600160a01b039485169463a9059cbb9493169263017e7e58928082019260209290918290030181865afa158015612388573d6000803e3d6000fd5b505050506040513d601f19601f820116820180604052508101906123ac91906133f1565b6040516001600160e01b031960e084901b1681526001600160a01b039091166004820152602481018590526044015b6020604051808303816000875af11580156123fa573d6000803e3d6000fd5b505050506040513d601f19601f8201168201806040525081019061241e919061383d565b9050612507565b6001546003546004805460408051622fcfcb60e31b815290516001600160a01b039586169563f5537ede9581169493169263017e7e58928082019260209290918290030181865afa15801561247e573d6000803e3d6000fd5b505050506040513d601f19601f820116820180604052508101906124a291906133f1565b856040518463ffffffff1660e01b81526004016124c193929190613819565b6020604051808303816000875af11580156124e0573d6000803e3d6000fd5b505050506040513d601f19601f82011682018060405250810190612504919061383d565b90505b92915050565b600d54600090600190600160b01b900460ff1615612579576019546001600160a01b031631156125745760015460195460405163a9059cbb60e01b81526001600160a01b03868116600483015291821631602482015291169063a9059cbb906044016123db565b612507565b6003546019546040516370a0823160e01b81526001600160a01b03918216600482015260009291909116906370a0823190602401602060405180830381865afa1580156125ca573d6000803e3d6000fd5b505050506040513d601f19601f820116820180604052508101906125ee9190613517565b1115612507576001546003546019546040516370a0823160e01b81526001600160a01b0391821660048201529281169263f5537ede929190911690869082906370a08231906024015b602060405180830381865afa158015612654573d6000803e3d6000fd5b505050506040513d601f19601f820116820180604052508101906126789190613517565b6040518463ffffffff1660e01b81526004016124c193929190613819565b6002546019546040516370a0823160e01b81526001600160a01b03918216600482015260009260019284929116906370a0823190602401602060405180830381865afa1580156126ea573d6000803e3d6000fd5b505050506040513d601f19601f8201168201806040525081019061270e9190613517565b1115612507576001546002546019546040516370a0823160e01b81526001600160a01b0391821660048201529281169263f5537ede929190911690869082906370a0823190602401612637565b60155442111561051b576040516265dca760e51b815260040160405180910390fd5b60006127d67f08523daf28ee17754671f39f9958942c4717267760901eea3e6ffd35005a72ea858786866040516020016127bb95949392919061393a565b60405160208183030381529060405280519060200120612a9e565b95945050505050565b6000846001600160a01b031661282b8585858080601f016020809104026020016040519081016040528093929190818152602001838380828437600092019190915250612aec92505050565b6001600160a01b03161495945050505050565b600061250482846138dc565b600061250482846138f3565b6014546000904210156128695750600190565b60155442116128785750600290565b50600390565b60008083156128bd57600d546128b6906128a390600160a81b900460ff16600a613508565b61098b6128af600f5490565b879061283e565b92506128f5565b82156128f5576128f26128cf600f5490565b600d5461098b906128eb90600160a81b900460ff16600a613508565b869061283e565b93505b50829050815b9250929050565b60006125048284613973565b60145442101561275b57604051636f312cbd60e01b815260040160405180910390fd5b81158061293c575080155b1561295a57604051631f2a200560e01b815260040160405180910390fd5b6129648282612b10565b6129815760405163640dea9d60e11b815260040160405180910390fd5b5050565b60008061299184612058565b50909211159392505050565b601054600090612710906129b59061ffff16846138dc565b61250791906138f3565b60006125048284613986565b6000806129d784611ef5565b90931115949350505050565b6010546000906125079061271090612a059062010000900461ffff16856138dc565b612a0f91906138f3565b83906129bf565b601454421061051b5760405163fc505be960e01b815260040160405180910390fd5b600080546001600160a01b038381166001600160a01b0319831681178455604051919092169283917f8be0079c531659141344cd1fd0a4f28419497f9722a3daafe3b4186f6b6457e09190a35050565b6000818310612a975781612504565b5090919050565b6000612507612aab612b59565b8360405161190160f01b6020820152602281018390526042810182905260009060620160405160208183030381529060405280519060200120905092915050565b6000806000612afb8585612c47565b91509150612b0881612cb2565b509392505050565b600080612b1e84600061287e565b9150506000612b2e60008561287e565b50905084811480612b3e57508382145b15612b4e57600192505050612507565b506000949350505050565b6000306001600160a01b037f000000000000000000000000000000000000000000000000000000000000000016148015612bb257507f000000000000000000000000000000000000000000000000000000000000000046145b15612bdc57507f000000000000000000000000000000000000000000000000000000000000000090565b6122887f00000000000000000000000000000000000000000000000000000000000000007f00000000000000000000000000000000000000000000000000000000000000007f0000000000000000000000000000000000000000000000000000000000000000612e68565b6000808251604103612c7d5760208301516040840151606085015160001a612c7187828585612eb2565b945094505050506128fb565b8251604003612ca65760208301516040840151612c9b868383612f9f565b9350935050506128fb565b506000905060026128fb565b6000816004811115612cc657612cc6613374565b03612cce5750565b6001816004811115612ce257612ce2613374565b03612d2f5760405162461bcd60e51b815260206004820152601860248201527f45434453413a20696e76616c6964207369676e617475726500000000000000006044820152606401610472565b6002816004811115612d4357612d43613374565b03612d905760405162461bcd60e51b815260206004820152601f60248201527f45434453413a20696e76616c6964207369676e6174757265206c656e677468006044820152606401610472565b6003816004811115612da457612da4613374565b03612dfc5760405162461bcd60e51b815260206004820152602260248201527f45434453413a20696e76616c6964207369676e6174757265202773272076616c604482015261756560f01b6064820152608401610472565b6004816004811115612e1057612e10613374565b03611e6b5760405162461bcd60e51b815260206004820152602260248201527f45434453413a20696e76616c6964207369676e6174757265202776272076616c604482015261756560f01b6064820152608401610472565b6040805160208101859052908101839052606081018290524660808201523060a082015260009060c0016040516020818303038152906040528051906020012090505b9392505050565b6000807f7fffffffffffffffffffffffffffffff5d576e7357a4501ddfe92f46681b20a0831115612ee95750600090506003612f96565b8460ff16601b14158015612f0157508460ff16601c14155b15612f125750600090506004612f96565b6040805160008082526020820180845289905260ff881692820192909252606081018690526080810185905260019060a0016020604051602081039080840390855afa158015612f66573d6000803e3d6000fd5b5050604051601f1901519150506001600160a01b038116612f8f57600060019250925050612f96565b9150600090505b94509492505050565b6000806001600160ff1b03831681612fbc60ff86901c601b613973565b9050612fca87828885612eb2565b935093505050935093915050565b610ec68061399a83390190565b6001600160a01b0381168114611e6b57600080fd5b803561300581612fe5565b919050565b60006020828403121561301c57600080fd5b8135612eab81612fe5565b60006020828403121561303957600080fd5b5035919050565b60008083601f84011261305257600080fd5b50813567ffffffffffffffff81111561306a57600080fd5b6020830191508360208285010111156128fb57600080fd5b6000806000806000806080878903121561309b57600080fd5b86356130a681612fe5565b955060208701359450604087013567ffffffffffffffff808211156130ca57600080fd5b6130d68a838b01613040565b909650945060608901359150808211156130ef57600080fd5b506130fc89828a01613040565b979a9699509497509295939492505050565b60005b83811015613129578181015183820152602001613111565b50506000910152565b6000815180845261314a81602086016020860161310e565b601f01601f19169290920160200192915050565b82151581526040602082015260006131796040830184613132565b949350505050565b634e487b7160e01b600052604160045260246000fd5b604051610220810167ffffffffffffffff811182821017156131bb576131bb613181565b60405290565b60ff81168114611e6b57600080fd5b8035613005816131c1565b8015158114611e6b57600080fd5b8035613005816131db565b803561ffff8116811461300557600080fd5b6000610220828403121561321957600080fd5b613221613197565b61322a83612ffa565b815261323860208401612ffa565b6020820152613249604084016131d0565b604082015261325a606084016131d0565b606082015261326b608084016131e9565b608082015260a083013560a082015260c083013560c082015261329060e084016131f4565b60e08201526101006132a38185016131f4565b90820152610120838101359082015261014080840135908201526101606132cb8185016131f4565b908201526101806132dd848201612ffa565b908201526101a083810135908201526101c080840135908201526101e0613305818501612ffa565b90820152610200928301359281019290925250919050565b6000806040838503121561333057600080fd5b50508035926020909101359150565b6020808252818101527f4f776e61626c653a2063616c6c6572206973206e6f7420746865206f776e6572604082015260600190565b634e487b7160e01b600052602160045260246000fd5b600581106133a857634e487b7160e01b600052602160045260246000fd5b9052565b6001600160a01b038316815260408101612eab602083018461338a565b6020808252600e908201526d4e6f2072652d656e7472616e637960901b604082015260600190565b60006020828403121561340357600080fd5b8151612eab81612fe5565b634e487b7160e01b600052601160045260246000fd5b600181815b8085111561345f5781600019048211156134455761344561340e565b8085161561345257918102915b93841c9390800290613429565b509250929050565b60008261347657506001612507565b8161348357506000612507565b816001811461349957600281146134a3576134bf565b6001915050612507565b60ff8411156134b4576134b461340e565b50506001821b612507565b5060208310610133831016604e8410600b84101617156134e2575081810a612507565b6134ec8383613424565b80600019048211156135005761350061340e565b029392505050565b600061250460ff841683613467565b60006020828403121561352957600080fd5b5051919050565b81835281816020850137506000828201602090810191909152601f909101601f19169091010190565b6001600160a01b038981168252888116602083015287166040820152606081018690526080810185905260e060a0820181905260009061359c9083018587613530565b905082151560c08301529998505050505050505050565b600080604083850312156135c657600080fd5b82516135d1816131db565b602084015190925067ffffffffffffffff808211156135ef57600080fd5b818501915085601f83011261360357600080fd5b81518181111561361557613615613181565b604051601f8201601f19908116603f0116810190838211818310171561363d5761363d613181565b8160405282815288602084870101111561365657600080fd5b61366783602083016020880161310e565b80955050505050509250929050565b6001600160a01b038416815261368f602082018461338a565b6060604082015260006127d66060830184613132565b6000602082840312156136b757600080fd5b8151612eab816131c1565b6001600160a01b03868116825285811660208301528481166040830152606082018490528254811660808301526102a082019060018401546001600160a01b038282161660a085015260a081901c60ff1660c085015260a881901c60ff1660e085015261373a610100850160ff8360b01c1615159052565b5060028401546101208401526003840154610140840152600484015461ffff808216610160860152601091821c811661018086015260058601546101a086015260068601546101c086015260078601549081166101e0860152901c166001600160a01b0390811661020084015260088401546102208401526009840154610240840152600a84015416610260830152600b9092015461028090910152949350505050565b60208082526004908201526314d95b1b60e21b604082015260600190565b60208082526003908201526242757960e81b604082015260600190565b6001600160a01b039384168152919092166020820152604081019190915260600190565b60006020828403121561384f57600080fd5b8151612eab816131db565b6001600160a01b03979097168752602087019590955260408601939093526060850191909152608084015260a083015260c082015260e00190565b602080825260099082015268213abc903a37b5b2b760b91b604082015260600190565b600080604083850312156138cb57600080fd5b505080516020909101519092909150565b80820281158282048414176125075761250761340e565b60008261391057634e487b7160e01b600052601260045260246000fd5b500490565b60006020828403121561392757600080fd5b815162ffffff81168114612eab57600080fd5b85815284602082015260018060a01b0384166040820152608060608201526000613968608083018486613530565b979650505050505050565b808201808211156125075761250761340e565b818103818111156125075761250761340e56fe608060405234801561001057600080fd5b50600080546001600160a01b0319163390811790915560408051918252517f4101e71e974f68df5e9730cc223280b41654676bbb052cdcc735c3337e64d2d99181900360200190a1610e5f806100676000396000f3fe6080604052600436106100ab5760003560e01c8063da3e339711610064578063da3e3397146101e6578063e32fca3f14610206578063e5a4dbf814610226578063ebb6dad814610254578063f5537ede14610289578063f5a79767146102a957600080fd5b80632348238c146101075780636aa05ee31461012957806379da956514610149578063a2ba266b14610169578063a9059cbb14610189578063c6dbdf61146101be57600080fd5b36610102576040805133815260208101829052600781830152667265636569766560c81b606082015290517fd00ca3f088120b3d909c3a9e01be91e94a2b001aed9c25fe751c3c7a72dc49bf9181900360800190a1005b600080fd5b34801561011357600080fd5b50610127610122366004610b71565b6102c9565b005b34801561013557600080fd5b50610127610144366004610b8e565b6103c2565b34801561015557600080fd5b50610127610164366004610b8e565b610467565b34801561017557600080fd5b50610127610184366004610b8e565b61050a565b34801561019557600080fd5b506101a96101a4366004610bc3565b61058a565b60405190151581526020015b60405180910390f35b3480156101ca57600080fd5b506000546040516001600160a01b0390911681526020016101b5565b3480156101f257600080fd5b506101a9610201366004610bef565b61061d565b34801561021257600080fd5b50610127610221366004610b8e565b6106cd565b34801561023257600080fd5b50610246610241366004610c4e565b61074c565b6040516101b5929190610d1c565b34801561026057600080fd5b5061027461026f366004610b71565b610a1b565b604080519283526020830191909152016101b5565b34801561029557600080fd5b506101a96102a4366004610bef565b610a76565b3480156102b557600080fd5b506102746102c4366004610b71565b610adf565b6000546001600160a01b0316336001600160a01b0316146103055760405162461bcd60e51b81526004016102fc90610d74565b60405180910390fd5b6001600160a01b03811661036e5760405162461bcd60e51b815260206004820152602a60248201527f5365636f6e646172793a206e6577207072696d61727920697320746865207a65604482015269726f206164647265737360b01b60648201526084016102fc565b600080546001600160a01b0319166001600160a01b0383169081179091556040519081527f4101e71e974f68df5e9730cc223280b41654676bbb052cdcc735c3337e64d2d99060200160405180910390a150565b6000546001600160a01b0316336001600160a01b0316146103f55760405162461bcd60e51b81526004016102fc90610d74565b6001600160a01b0383166000908152600160205260409020546104189083610b3a565b6001600160a01b038416600090815260016020819052604090912091825501546104429082610b3a565b6001600160a01b03909316600090815260016020819052604090912001929092555050565b6000546001600160a01b0316336001600160a01b03161461049a5760405162461bcd60e51b81526004016102fc90610d74565b6001600160a01b0383166000908152600260205260409020546104bd9083610b3a565b6001600160a01b0384166000908152600260205260409020908155600101546104e69082610b3a565b6001600160a01b039093166000908152600260205260409020600101929092555050565b6000546001600160a01b0316336001600160a01b03161461053d5760405162461bcd60e51b81526004016102fc90610d74565b6001600160a01b0383166000908152600160205260409020546105609083610b4d565b6001600160a01b038416600090815260016020819052604090912091825501546104429082610b4d565b600080546001600160a01b0316336001600160a01b0316146105be5760405162461bcd60e51b81526004016102fc90610d74565b6000836001600160a01b03168360405160006040518083038185875af1925050503d806000811461060b576040519150601f19603f3d011682016040523d82523d6000602084013e610610565b606091505b5090925050505b92915050565b600080546001600160a01b0316336001600160a01b0316146106515760405162461bcd60e51b81526004016102fc90610d74565b60405163095ea7b360e01b81526001600160a01b0384811660048301526024820184905285169063095ea7b3906044015b6020604051808303816000875af11580156106a1573d6000803e3d6000fd5b505050506040513d601f19601f820116820180604052508101906106c59190610dc0565b949350505050565b6000546001600160a01b0316336001600160a01b0316146107005760405162461bcd60e51b81526004016102fc90610d74565b6001600160a01b0383166000908152600260205260409020546107239083610b4d565b6001600160a01b0384166000908152600260205260409020908155600101546104e69082610b4d565b600080546060906001600160a01b0316336001600160a01b0316146107835760405162461bcd60e51b81526004016102fc90610d74565b60405163095ea7b360e01b81526001600160a01b038b8116600483015260248201899052600091908b169063095ea7b3906044016020604051808303816000875af11580156107d6573d6000803e3d6000fd5b505050506040513d601f19601f820116820180604052508101906107fa9190610dc0565b9050806108545760405162461bcd60e51b815260206004820152602260248201527f417070726f76652073656c6c20746f6b656e20746f20726f757465722065727260448201526137b960f11b60648201526084016102fc565b83156108c2578a6001600160a01b0316878787604051610875929190610ddd565b60006040518083038185875af1925050503d80600081146108b2576040519150601f19603f3d011682016040523d82523d6000602084013e6108b7565b606091505b509093509150610a0d565b60405163095ea7b360e01b81526001600160a01b038c81166004830152602482018990528a169063095ea7b3906044016020604051808303816000875af1158015610911573d6000803e3d6000fd5b505050506040513d601f19601f820116820180604052508101906109359190610dc0565b9050806109aa5760405162461bcd60e51b815260206004820152603b60248201527f416e206572726f72206f63637572726564207768696c652073656e64696e672060448201527f7468652062757920746f6b656e20746f2074686520726f75746572000000000060648201526084016102fc565b8a6001600160a01b031686866040516109c4929190610ddd565b6000604051808303816000865af19150503d8060008114610a01576040519150601f19603f3d011682016040523d82523d6000602084013e610a06565b606091505b5090935091505b509850989650505050505050565b6000805481906001600160a01b0316336001600160a01b031614610a515760405162461bcd60e51b81526004016102fc90610d74565b50506001600160a01b0316600090815260016020819052604090912080549101549091565b600080546001600160a01b0316336001600160a01b031614610aaa5760405162461bcd60e51b81526004016102fc90610d74565b60405163a9059cbb60e01b81526001600160a01b0384811660048301526024820184905285169063a9059cbb90604401610682565b6000805481906001600160a01b0316336001600160a01b031614610b155760405162461bcd60e51b81526004016102fc90610d74565b50506001600160a01b0316600090815260026020526040902080546001909101549091565b6000610b468284610e03565b9392505050565b6000610b468284610e16565b6001600160a01b0381168114610b6e57600080fd5b50565b600060208284031215610b8357600080fd5b8135610b4681610b59565b600080600060608486031215610ba357600080fd5b8335610bae81610b59565b95602085013595506040909401359392505050565b60008060408385031215610bd657600080fd5b8235610be181610b59565b946020939093013593505050565b600080600060608486031215610c0457600080fd5b8335610c0f81610b59565b92506020840135610c1f81610b59565b929592945050506040919091013590565b8015158114610b6e57600080fd5b8035610c4981610c30565b919050565b60008060008060008060008060e0898b031215610c6a57600080fd5b8835610c7581610b59565b97506020890135610c8581610b59565b96506040890135610c9581610b59565b9550606089013594506080890135935060a089013567ffffffffffffffff80821115610cc057600080fd5b818b0191508b601f830112610cd457600080fd5b813581811115610ce357600080fd5b8c6020828501011115610cf557600080fd5b602083019550809450505050610d0d60c08a01610c3e565b90509295985092959890939650565b821515815260006020604081840152835180604085015260005b81811015610d5257858101830151858201606001528201610d36565b506000606082860101526060601f19601f830116850101925050509392505050565b6020808252602c908201527f5365636f6e646172793a2063616c6c6572206973206e6f74207468652070726960408201526b1b585c9e481858d8dbdd5b9d60a21b606082015260800190565b600060208284031215610dd257600080fd5b8151610b4681610c30565b8183823760009101908152919050565b634e487b7160e01b600052601160045260246000fd5b8082018082111561061757610617610ded565b8181038181111561061757610617610ded56fea26469706673582212201bbf263b62dcd4e0466d9b00e698276476e3b3b04503310c32b01134a5a4f31964736f6c63430008120033a2646970667358221220db41b7db7e2cd6730984a0edca2be9dfae0e03f4da05036b207846c4f43cd33d64736f6c63430008120033a264697066735822122065d3f3d0d199292f5631f651fec4f22e3221b68c22f6d3ae23292159ce2bc4a164736f6c63430008120033608060405234801561001057600080fd5b50600080546001600160a01b0319163390811790915560408051918252517f4101e71e974f68df5e9730cc223280b41654676bbb052cdcc735c3337e64d2d99181900360200190a1610458806100676000396000f3fe608060405234801561001057600080fd5b50600436106100575760003560e01c80632348238c1461005c57806389b09de714610071578063c2bc80fd14610084578063c6dbdf61146100a2578063fc91a897146100bd575b600080fd5b61006f61006a366004610359565b6100e0565b005b61006f61007f366004610359565b6101d9565b61008c610270565b6040516100999190610389565b60405180910390f35b6000546040516001600160a01b039091168152602001610099565b6100d06100cb366004610359565b610306565b6040519015158152602001610099565b6000546001600160a01b0316336001600160a01b03161461011c5760405162461bcd60e51b8152600401610113906103d6565b60405180910390fd5b6001600160a01b0381166101855760405162461bcd60e51b815260206004820152602a60248201527f5365636f6e646172793a206e6577207072696d61727920697320746865207a65604482015269726f206164647265737360b01b6064820152608401610113565b600080546001600160a01b0319166001600160a01b0383169081179091556040519081527f4101e71e974f68df5e9730cc223280b41654676bbb052cdcc735c3337e64d2d99060200160405180910390a150565b6000546001600160a01b0316336001600160a01b03161461020c5760405162461bcd60e51b8152600401610113906103d6565b6001805480820182557fb10e2d527612073b26eecdfd717e6a320cf44b4afac2b0732d9fcbe2b7fa0cf60180546001600160a01b039093166001600160a01b031990931683179055600091825260026020526040909120805460ff19169091179055565b6000546060906001600160a01b0316336001600160a01b0316146102a65760405162461bcd60e51b8152600401610113906103d6565b60018054806020026020016040519081016040528092919081815260200182805480156102fc57602002820191906000526020600020905b81546001600160a01b031681526001909101906020018083116102de575b5050505050905090565b600080546001600160a01b0316336001600160a01b03161461033a5760405162461bcd60e51b8152600401610113906103d6565b506001600160a01b031660009081526002602052604090205460ff1690565b60006020828403121561036b57600080fd5b81356001600160a01b038116811461038257600080fd5b9392505050565b6020808252825182820181905260009190848201906040850190845b818110156103ca5783516001600160a01b0316835292840192918401916001016103a5565b50909695505050505050565b6020808252602c908201527f5365636f6e646172793a2063616c6c6572206973206e6f74207468652070726960408201526b1b585c9e481858d8dbdd5b9d60a21b60608201526080019056fea2646970667358221220966553de967a178386abe824c201884392773bd9c7f9833e8c3d08448a4afa2564736f6c63430008120033608060405234801561001057600080fd5b5061001a3361001f565b61006f565b600080546001600160a01b038381166001600160a01b0319831681178455604051919092169283917f8be0079c531659141344cd1fd0a4f28419497f9722a3daafe3b4186f6b6457e09190a35050565b6104d18061007e6000396000f3fe608060405234801561001057600080fd5b50600436106100625760003560e01c80633af32abf14610067578063715018a6146100a85780638ab1d681146100b25780638da5cb5b146100c5578063e43252d7146100e0578063f2fde38b146100f3575b600080fd5b610093610075366004610436565b6001600160a01b031660009081526001602052604090205460ff1690565b60405190151581526020015b60405180910390f35b6100b0610106565b005b6100b06100c0366004610436565b610145565b6000546040516001600160a01b03909116815260200161009f565b6100b06100ee366004610436565b610220565b6100b0610101366004610436565b61034b565b6000546001600160a01b031633146101395760405162461bcd60e51b815260040161013090610466565b60405180910390fd5b61014360006103e6565b565b6000546001600160a01b0316331461016f5760405162461bcd60e51b815260040161013090610466565b6001600160a01b03811660009081526001602052604090205460ff166101d75760405162461bcd60e51b815260206004820152601b60248201527f41646472657373206973206e6f742077686974656c69737465642e00000000006044820152606401610130565b6001600160a01b038116600081815260016020526040808220805460ff19169055517f24a12366c02e13fe4a9e03d86a8952e85bb74a456c16e4a18b6d8295700b74bb9190a250565b6000546001600160a01b0316331461024a5760405162461bcd60e51b815260040161013090610466565b6001600160a01b0381166102935760405162461bcd60e51b815260206004820152601060248201526f24b73b30b634b21030b2323932b9b99760811b6044820152606401610130565b6001600160a01b03811660009081526001602052604090205460ff16156102fc5760405162461bcd60e51b815260206004820152601f60248201527f4164647265737320697320616c72656164792077686974656c69737465642e006044820152606401610130565b6001600160a01b0381166000818152600160208190526040808320805460ff1916909217909155517fa226db3f664042183ee0281230bba26cbf7b5057e50aee7f25a175ff45ce4d7f9190a250565b6000546001600160a01b031633146103755760405162461bcd60e51b815260040161013090610466565b6001600160a01b0381166103da5760405162461bcd60e51b815260206004820152602660248201527f4f776e61626c653a206e6577206f776e657220697320746865207a65726f206160448201526564647265737360d01b6064820152608401610130565b6103e3816103e6565b50565b600080546001600160a01b038381166001600160a01b0319831681178455604051919092169283917f8be0079c531659141344cd1fd0a4f28419497f9722a3daafe3b4186f6b6457e09190a35050565b60006020828403121561044857600080fd5b81356001600160a01b038116811461045f57600080fd5b9392505050565b6020808252818101527f4f776e61626c653a2063616c6c6572206973206e6f7420746865206f776e657260408201526060019056fea2646970667358221220a77cdf0f3d86db49028e6c901b914b09b8bac955701756e31487bed82467b8a264736f6c63430008120033",
  "linkReferences": {},
  "deployedLinkReferences": {}
}